{
  "address": "0x046f455CD0782BD3C3b0E78889F7EA3c47eAF827",
  "abi": [
    {
      "inputs": [
        {
          "internalType": "uint256",
          "name": "_value",
          "type": "uint256"
        },
        {
          "internalType": "address",
          "name": "_operator",
          "type": "address"
        }
      ],
      "stateMutability": "nonpayable",
      "type": "constructor"
    },
    {
      "anonymous": false,
      "inputs": [
        {
          "indexed": true,
          "internalType": "address",
          "name": "previousOwner",
          "type": "address"
        },
        {
          "indexed": true,
          "internalType": "address",
          "name": "newOwner",
          "type": "address"
        }
      ],
      "name": "OwnershipTransferred",
      "type": "event"
    },
    {
      "inputs": [],
      "name": "latestAnswer",
      "outputs": [
        {
          "internalType": "uint256",
          "name": "",
          "type": "uint256"
        }
      ],
      "stateMutability": "view",
      "type": "function"
    },
    {
      "inputs": [],
      "name": "owner",
      "outputs": [
        {
          "internalType": "address",
          "name": "",
          "type": "address"
        }
      ],
      "stateMutability": "view",
      "type": "function"
    },
    {
      "inputs": [],
      "name": "renounceOwnership",
      "outputs": [],
      "stateMutability": "nonpayable",
      "type": "function"
    },
    {
      "inputs": [
        {
          "internalType": "address",
          "name": "newOperator",
          "type": "address"
        }
      ],
      "name": "setNewOperator",
      "outputs": [],
      "stateMutability": "nonpayable",
      "type": "function"
    },
    {
      "inputs": [
        {
          "internalType": "uint256",
          "name": "_value",
          "type": "uint256"
        }
      ],
      "name": "setUSDPrice",
      "outputs": [],
      "stateMutability": "nonpayable",
      "type": "function"
    },
    {
      "inputs": [
        {
          "internalType": "address",
          "name": "newOwner",
          "type": "address"
        }
      ],
      "name": "transferOwnership",
      "outputs": [],
      "stateMutability": "nonpayable",
      "type": "function"
    }
  ],
  "transactionHash": "0x701b090323e0ca2aeb49eacf8b9f754288219128bde47efc957f0f1571137ef6",
  "args": [
    "950000000",
    "0xD062021abbB9F7CDdB64fBF6b515914fb0332B75"
  ],
  "numDeployments": 1,
  "solcInputHash": "afd73712db1987e8c847641fbe720bd6",
  "bytecode": "0x608060405234801561001057600080fd5b5060405161041b38038061041b83398101604081905261002f916100b2565b61003833610062565b600191909155600280546001600160a01b0319166001600160a01b039092169190911790556100ef565b600080546001600160a01b038381166001600160a01b0319831681178455604051919092169283917f8be0079c531659141344cd1fd0a4f28419497f9722a3daafe3b4186f6b6457e09190a35050565b600080604083850312156100c557600080fd5b825160208401519092506001600160a01b03811681146100e457600080fd5b809150509250929050565b61031d806100fe6000396000f3fe608060405234801561001057600080fd5b50600436106100725760003560e01c80638da5cb5b116100505780638da5cb5b146100aa578063f2fde38b146100c5578063f8ef8759146100d857600080fd5b8063147d959a1461007757806350d25bcd1461008c578063715018a6146100a2575b600080fd5b61008a61008536600461029e565b6100eb565b005b6001546040519081526020015b60405180910390f35b61008a610107565b6000546040516001600160a01b039091168152602001610099565b61008a6100d33660046102b7565b61011b565b61008a6100e63660046102b7565b6101b0565b6002546001600160a01b0316331461010257600080fd5b600155565b61010f6101e7565b6101196000610241565b565b6101236101e7565b6001600160a01b0381166101a45760405162461bcd60e51b815260206004820152602660248201527f4f776e61626c653a206e6577206f776e657220697320746865207a65726f206160448201527f646472657373000000000000000000000000000000000000000000000000000060648201526084015b60405180910390fd5b6101ad81610241565b50565b6101b86101e7565b6002805473ffffffffffffffffffffffffffffffffffffffff19166001600160a01b0392909216919091179055565b6000546001600160a01b031633146101195760405162461bcd60e51b815260206004820181905260248201527f4f776e61626c653a2063616c6c6572206973206e6f7420746865206f776e6572604482015260640161019b565b600080546001600160a01b0383811673ffffffffffffffffffffffffffffffffffffffff19831681178455604051919092169283917f8be0079c531659141344cd1fd0a4f28419497f9722a3daafe3b4186f6b6457e09190a35050565b6000602082840312156102b057600080fd5b5035919050565b6000602082840312156102c957600080fd5b81356001600160a01b03811681146102e057600080fd5b939250505056fea264697066735822122095e4c3659f57d4fc3eae29c8887054c29aae846c76296d4a40516b3aab88d5d364736f6c63430008110033",
  "devdoc": {
    "kind": "dev",
    "methods": {
      "owner()": {
        "details": "Returns the address of the current owner."
      },
      "renounceOwnership()": {
        "details": "Leaves the contract without owner. It will not be possible to call `onlyOwner` functions anymore. Can only be called by the current owner. NOTE: Renouncing ownership will leave the contract without an owner, thereby removing any functionality that is only available to the owner."
      },
      "transferOwnership(address)": {
        "details": "Transfers ownership of the contract to a new account (`newOwner`). Can only be called by the current owner."
      }
    },
    "version": 1
  },
  "userdoc": {
    "kind": "user",
    "methods": {},
    "version": 1
  },
  "storageLayout": {
    "storage": [
      {
        "astId": 444,
        "contract": "contracts/ethregistrar/PriceOracle.sol:PriceOracle",
        "label": "_owner",
        "offset": 0,
        "slot": "0",
        "type": "t_address"
      },
      {
        "astId": 14094,
        "contract": "contracts/ethregistrar/PriceOracle.sol:PriceOracle",
        "label": "wbtPriceToUSD",
        "offset": 0,
        "slot": "1",
        "type": "t_uint256"
      },
      {
        "astId": 14096,
        "contract": "contracts/ethregistrar/PriceOracle.sol:PriceOracle",
        "label": "operator",
        "offset": 0,
        "slot": "2",
        "type": "t_address"
      }
    ],
    "types": {
      "t_address": {
        "encoding": "inplace",
        "label": "address",
        "numberOfBytes": "20"
      },
      "t_uint256": {
        "encoding": "inplace",
        "label": "uint256",
        "numberOfBytes": "32"
      }
    }
  }
}